{
  "contractName": "VotingContract",
  "abi": [
    {
      "inputs": [],
      "stateMutability": "nonpayable",
      "type": "constructor"
    },
    {
      "anonymous": false,
      "inputs": [
        {
          "indexed": true,
          "internalType": "uint256",
          "name": "option",
          "type": "uint256"
        },
        {
          "indexed": true,
          "internalType": "address",
          "name": "voter",
          "type": "address"
        }
      ],
      "name": "Vote",
      "type": "event"
    },
    {
      "inputs": [],
      "name": "admin",
      "outputs": [
        {
          "internalType": "address",
          "name": "",
          "type": "address"
        }
      ],
      "stateMutability": "view",
      "type": "function",
      "constant": true
    },
    {
      "inputs": [
        {
          "internalType": "uint256",
          "name": "",
          "type": "uint256"
        }
      ],
      "name": "options",
      "outputs": [
        {
          "internalType": "string",
          "name": "",
          "type": "string"
        }
      ],
      "stateMutability": "view",
      "type": "function",
      "constant": true
    },
    {
      "inputs": [],
      "name": "getMessage",
      "outputs": [
        {
          "internalType": "string",
          "name": "",
          "type": "string"
        }
      ],
      "stateMutability": "view",
      "type": "function",
      "constant": true
    },
    {
      "inputs": [
        {
          "internalType": "string[]",
          "name": "_options",
          "type": "string[]"
        }
      ],
      "name": "createVote",
      "outputs": [],
      "stateMutability": "nonpayable",
      "type": "function"
    },
    {
      "inputs": [
        {
          "internalType": "uint256",
          "name": "_option",
          "type": "uint256"
        }
      ],
      "name": "vote",
      "outputs": [],
      "stateMutability": "nonpayable",
      "type": "function"
    },
    {
      "inputs": [
        {
          "internalType": "uint256",
          "name": "_id",
          "type": "uint256"
        }
      ],
      "name": "getCandidate",
      "outputs": [
        {
          "internalType": "uint256",
          "name": "",
          "type": "uint256"
        },
        {
          "internalType": "string",
          "name": "",
          "type": "string"
        },
        {
          "internalType": "string",
          "name": "",
          "type": "string"
        },
        {
          "internalType": "uint256",
          "name": "",
          "type": "uint256"
        }
      ],
      "stateMutability": "view",
      "type": "function",
      "constant": true
    },
    {
      "inputs": [
        {
          "internalType": "uint256",
          "name": "_option",
          "type": "uint256"
        }
      ],
      "name": "getVoteCount",
      "outputs": [
        {
          "internalType": "uint256",
          "name": "",
          "type": "uint256"
        }
      ],
      "stateMutability": "view",
      "type": "function",
      "constant": true
    },
    {
      "inputs": [],
      "name": "getVoting",
      "outputs": [
        {
          "internalType": "uint256[]",
          "name": "",
          "type": "uint256[]"
        },
        {
          "components": [
            {
              "internalType": "uint256",
              "name": "id",
              "type": "uint256"
            },
            {
              "internalType": "string",
              "name": "name",
              "type": "string"
            },
            {
              "internalType": "string",
              "name": "party",
              "type": "string"
            },
            {
              "internalType": "uint256",
              "name": "voteCount",
              "type": "uint256"
            }
          ],
          "internalType": "struct VotingContract.Candidate[]",
          "name": "",
          "type": "tuple[]"
        }
      ],
      "stateMutability": "view",
      "type": "function",
      "constant": true
    },
    {
      "inputs": [],
      "name": "candidateCount",
      "outputs": [
        {
          "internalType": "uint256",
          "name": "",
          "type": "uint256"
        }
      ],
      "stateMutability": "view",
      "type": "function",
      "constant": true
    },
    {
      "inputs": [],
      "name": "getOptionCount",
      "outputs": [
        {
          "internalType": "uint256",
          "name": "",
          "type": "uint256"
        }
      ],
      "stateMutability": "view",
      "type": "function",
      "constant": true
    }
  ],
  "bytecode": "0x60806040526040518060400160405280600c81526020017f48656c6c6f20776f726c64210000000000000000000000000000000000000000815250600190816200004a919062000580565b5034801562000057575f80fd5b50620000d55f6040518060400160405280600b81526020017f43616e64696461746520410000000000000000000000000000000000000000008152506040518060400160405280600781526020017f50617274792058000000000000000000000000000000000000000000000000008152506200021660201b60201c565b6200015360016040518060400160405280600b81526020017f43616e64696461746520420000000000000000000000000000000000000000008152506040518060400160405280600781526020017f50617274792059000000000000000000000000000000000000000000000000008152506200021660201b60201c565b620001d160026040518060400160405280600b81526020017f43616e64696461746520430000000000000000000000000000000000000000008152506040518060400160405280600781526020017f5061727479205a000000000000000000000000000000000000000000000000008152506200021660201b60201c565b335f806101000a81548173ffffffffffffffffffffffffffffffffffffffff021916908373ffffffffffffffffffffffffffffffffffffffff16021790555062000708565b60065f8481526020019081526020015f205f9054906101000a900460ff161562000277576040517f08c379a00000000000000000000000000000000000000000000000000000000081526004016200026e90620006e8565b60405180910390fd5b60405180608001604052808481526020018381526020018281526020015f81525060055f8581526020019081526020015f205f820151815f01556020820151816001019081620002c8919062000580565b506040820151816002019081620002e0919062000580565b5060608201518160030155905050600160065f8581526020019081526020015f205f6101000a81548160ff021916908315150217905550505050565b5f81519050919050565b7f4e487b71000000000000000000000000000000000000000000000000000000005f52604160045260245ffd5b7f4e487b71000000000000000000000000000000000000000000000000000000005f52602260045260245ffd5b5f60028204905060018216806200039857607f821691505b602082108103620003ae57620003ad62000353565b5b50919050565b5f819050815f5260205f209050919050565b5f6020601f8301049050919050565b5f82821b905092915050565b5f60088302620004127fffffffffffffffffffffffffffffffffffffffffffffffffffffffffffffffff82620003d5565b6200041e8683620003d5565b95508019841693508086168417925050509392505050565b5f819050919050565b5f819050919050565b5f62000468620004626200045c8462000436565b6200043f565b62000436565b9050919050565b5f819050919050565b620004838362000448565b6200049b62000492826200046f565b848454620003e1565b825550505050565b5f90565b620004b1620004a3565b620004be81848462000478565b505050565b5b81811015620004e557620004d95f82620004a7565b600181019050620004c4565b5050565b601f8211156200053457620004fe81620003b4565b6200050984620003c6565b8101602085101562000519578190505b620005316200052885620003c6565b830182620004c3565b50505b505050565b5f82821c905092915050565b5f620005565f198460080262000539565b1980831691505092915050565b5f62000570838362000545565b9150826002028217905092915050565b6200058b826200031c565b67ffffffffffffffff811115620005a757620005a662000326565b5b620005b3825462000380565b620005c0828285620004e9565b5f60209050601f831160018114620005f6575f8415620005e1578287015190505b620005ed858262000563565b8655506200065c565b601f1984166200060686620003b4565b5f5b828110156200062f5784890151825560018201915060208501945060208101905062000608565b868310156200064f57848901516200064b601f89168262000545565b8355505b6001600288020188555050505b505050505050565b5f82825260208201905092915050565b7f43616e6469646174652077697468207468652073616d6520494420616c7265615f8201527f6479206578697374730000000000000000000000000000000000000000000000602082015250565b5f620006d060298362000664565b9150620006dd8262000674565b604082019050919050565b5f6020820190508181035f8301526200070181620006c2565b9050919050565b61186980620007165f395ff3fe608060405234801561000f575f80fd5b506004361061009c575f3560e01c8063a6bd542711610064578063a6bd54271461015a578063a9a981a314610178578063b2c2f2e814610196578063ce6d41de146101c6578063f851a440146101e45761009c565b80630121b93f146100a05780631706a939146100bc5780631986d376146100d857806335b8e820146100f7578063409e22051461012a575b5f80fd5b6100ba60048036038101906100b59190610c4a565b610202565b005b6100d660048036038101906100d19190610e93565b6103ad565b005b6100e06104d8565b6040516100ee92919061112d565b60405180910390f35b610111600480360381019061010c9190610c4a565b61077e565b60405161012194939291906111b9565b60405180910390f35b610144600480360381019061013f9190610c4a565b610955565b604051610151919061120a565b60405180910390f35b6101626109f0565b60405161016f919061122a565b60405180910390f35b610180610a55565b60405161018d919061122a565b60405180910390f35b6101b060048036038101906101ab9190610c4a565b610ab4565b6040516101bd919061122a565b60405180910390f35b6101ce610b2d565b6040516101db919061120a565b60405180910390f35b6101ec610bbd565b6040516101f99190611282565b60405180910390f35b5f60045f8381526020019081526020015f20805461021f906112c8565b905011610261576040517f08c379a000000000000000000000000000000000000000000000000000000000815260040161025890611342565b60405180910390fd5b60025f3373ffffffffffffffffffffffffffffffffffffffff1673ffffffffffffffffffffffffffffffffffffffff1681526020019081526020015f205f9054906101000a900460ff16156102eb576040517f08c379a00000000000000000000000000000000000000000000000000000000081526004016102e2906113aa565b60405180910390fd5b600160025f3373ffffffffffffffffffffffffffffffffffffffff1673ffffffffffffffffffffffffffffffffffffffff1681526020019081526020015f205f6101000a81548160ff02191690831515021790555060035f8281526020019081526020015f205f815480929190610361906113f5565b91905055503373ffffffffffffffffffffffffffffffffffffffff16817f10a412bf229fbac2408912cb271b8ff9eb39eb72da91dd0c8accab0fb101113560405160405180910390a350565b5f8054906101000a900473ffffffffffffffffffffffffffffffffffffffff1673ffffffffffffffffffffffffffffffffffffffff163373ffffffffffffffffffffffffffffffffffffffff161461043a576040517f08c379a0000000000000000000000000000000000000000000000000000000008152600401610431906114ac565b60405180910390fd5b5f81511161047d576040517f08c379a000000000000000000000000000000000000000000000000000000000815260040161047490611514565b60405180910390fd5b5f5b81518110156104d45781818151811061049b5761049a611532565b5b602002602001015160045f8381526020019081526020015f2090816104c091906116fc565b5080806104cc906113f5565b91505061047f565b5050565b6060805f6104e46109f0565b90505f8167ffffffffffffffff81111561050157610500610c89565b5b60405190808252806020026020018201604052801561052f5781602001602082028036833780820191505090505b5090505f61053b610a55565b67ffffffffffffffff81111561055457610553610c89565b5b60405190808252806020026020018201604052801561058d57816020015b61057a610be0565b8152602001906001900390816105725790505b5090505f5b838110156105de5760035f8281526020019081526020015f20548382815181106105bf576105be611532565b5b60200260200101818152505080806105d6906113f5565b915050610592565b505f5b6105e9610a55565b8110156107705760055f8281526020019081526020015f206040518060800160405290815f8201548152602001600182018054610625906112c8565b80601f0160208091040260200160405190810160405280929190818152602001828054610651906112c8565b801561069c5780601f106106735761010080835404028352916020019161069c565b820191905f5260205f20905b81548152906001019060200180831161067f57829003601f168201915b505050505081526020016002820180546106b5906112c8565b80601f01602080910402602001604051908101604052809291908181526020018280546106e1906112c8565b801561072c5780601f106107035761010080835404028352916020019161072c565b820191905f5260205f20905b81548152906001019060200180831161070f57829003601f168201915b5050505050815260200160038201548152505082828151811061075257610751611532565b5b60200260200101819052508080610768906113f5565b9150506105e1565b508181945094505050509091565b5f6060805f60065f8681526020019081526020015f205f9054906101000a900460ff166107e0576040517f08c379a00000000000000000000000000000000000000000000000000000000081526004016107d790611815565b60405180910390fd5b5f60055f8781526020019081526020015f206040518060800160405290815f8201548152602001600182018054610816906112c8565b80601f0160208091040260200160405190810160405280929190818152602001828054610842906112c8565b801561088d5780601f106108645761010080835404028352916020019161088d565b820191905f5260205f20905b81548152906001019060200180831161087057829003601f168201915b505050505081526020016002820180546108a6906112c8565b80601f01602080910402602001604051908101604052809291908181526020018280546108d2906112c8565b801561091d5780601f106108f45761010080835404028352916020019161091d565b820191905f5260205f20905b81548152906001019060200180831161090057829003601f168201915b505050505081526020016003820154815250509050805f01518160200151826040015183606001519450945094509450509193509193565b6004602052805f5260405f205f915090508054610971906112c8565b80601f016020809104026020016040519081016040528092919081815260200182805461099d906112c8565b80156109e85780601f106109bf576101008083540402835291602001916109e8565b820191905f5260205f20905b8154815290600101906020018083116109cb57829003601f168201915b505050505081565b5f805f90505f5b6109ff610a55565b811015610a4d575f60045f8381526020019081526020015f208054610a23906112c8565b90501115610a3a578180610a36906113f5565b9250505b8080610a45906113f5565b9150506109f7565b508091505090565b5f805f90505f5b6003811015610aac575f60045f8381526020019081526020015f208054610a82906112c8565b90501115610a99578180610a95906113f5565b9250505b8080610aa4906113f5565b915050610a5c565b508091505090565b5f8060045f8481526020019081526020015f208054610ad2906112c8565b905011610b14576040517f08c379a0000000000000000000000000000000000000000000000000000000008152600401610b0b90611342565b60405180910390fd5b60035f8381526020019081526020015f20549050919050565b606060018054610b3c906112c8565b80601f0160208091040260200160405190810160405280929190818152602001828054610b68906112c8565b8015610bb35780601f10610b8a57610100808354040283529160200191610bb3565b820191905f5260205f20905b815481529060010190602001808311610b9657829003601f168201915b5050505050905090565b5f8054906101000a900473ffffffffffffffffffffffffffffffffffffffff1681565b60405180608001604052805f815260200160608152602001606081526020015f81525090565b5f604051905090565b5f80fd5b5f80fd5b5f819050919050565b610c2981610c17565b8114610c33575f80fd5b50565b5f81359050610c4481610c20565b92915050565b5f60208284031215610c5f57610c5e610c0f565b5b5f610c6c84828501610c36565b91505092915050565b5f80fd5b5f601f19601f8301169050919050565b7f4e487b71000000000000000000000000000000000000000000000000000000005f52604160045260245ffd5b610cbf82610c79565b810181811067ffffffffffffffff82111715610cde57610cdd610c89565b5b80604052505050565b5f610cf0610c06565b9050610cfc8282610cb6565b919050565b5f67ffffffffffffffff821115610d1b57610d1a610c89565b5b602082029050602081019050919050565b5f80fd5b5f80fd5b5f67ffffffffffffffff821115610d4e57610d4d610c89565b5b610d5782610c79565b9050602081019050919050565b828183375f83830152505050565b5f610d84610d7f84610d34565b610ce7565b905082815260208101848484011115610da057610d9f610d30565b5b610dab848285610d64565b509392505050565b5f82601f830112610dc757610dc6610c75565b5b8135610dd7848260208601610d72565b91505092915050565b5f610df2610ded84610d01565b610ce7565b90508083825260208201905060208402830185811115610e1557610e14610d2c565b5b835b81811015610e5c57803567ffffffffffffffff811115610e3a57610e39610c75565b5b808601610e478982610db3565b85526020850194505050602081019050610e17565b5050509392505050565b5f82601f830112610e7a57610e79610c75565b5b8135610e8a848260208601610de0565b91505092915050565b5f60208284031215610ea857610ea7610c0f565b5b5f82013567ffffffffffffffff811115610ec557610ec4610c13565b5b610ed184828501610e66565b91505092915050565b5f81519050919050565b5f82825260208201905092915050565b5f819050602082019050919050565b610f0c81610c17565b82525050565b5f610f1d8383610f03565b60208301905092915050565b5f602082019050919050565b5f610f3f82610eda565b610f498185610ee4565b9350610f5483610ef4565b805f5b83811015610f84578151610f6b8882610f12565b9750610f7683610f29565b925050600181019050610f57565b5085935050505092915050565b5f81519050919050565b5f82825260208201905092915050565b5f819050602082019050919050565b5f81519050919050565b5f82825260208201905092915050565b5f5b83811015610ff1578082015181840152602081019050610fd6565b5f8484015250505050565b5f61100682610fba565b6110108185610fc4565b9350611020818560208601610fd4565b61102981610c79565b840191505092915050565b5f608083015f8301516110495f860182610f03565b50602083015184820360208601526110618282610ffc565b9150506040830151848203604086015261107b8282610ffc565b91505060608301516110906060860182610f03565b508091505092915050565b5f6110a68383611034565b905092915050565b5f602082019050919050565b5f6110c482610f91565b6110ce8185610f9b565b9350836020820285016110e085610fab565b805f5b8581101561111b57848403895281516110fc858261109b565b9450611107836110ae565b925060208a019950506001810190506110e3565b50829750879550505050505092915050565b5f6040820190508181035f8301526111458185610f35565b9050818103602083015261115981846110ba565b90509392505050565b61116b81610c17565b82525050565b5f82825260208201905092915050565b5f61118b82610fba565b6111958185611171565b93506111a5818560208601610fd4565b6111ae81610c79565b840191505092915050565b5f6080820190506111cc5f830187611162565b81810360208301526111de8186611181565b905081810360408301526111f28185611181565b90506112016060830184611162565b95945050505050565b5f6020820190508181035f8301526112228184611181565b905092915050565b5f60208201905061123d5f830184611162565b92915050565b5f73ffffffffffffffffffffffffffffffffffffffff82169050919050565b5f61126c82611243565b9050919050565b61127c81611262565b82525050565b5f6020820190506112955f830184611273565b92915050565b7f4e487b71000000000000000000000000000000000000000000000000000000005f52602260045260245ffd5b5f60028204905060018216806112df57607f821691505b6020821081036112f2576112f161129b565b5b50919050565b7f496e76616c6964206f7074696f6e0000000000000000000000000000000000005f82015250565b5f61132c600e83611171565b9150611337826112f8565b602082019050919050565b5f6020820190508181035f83015261135981611320565b9050919050565b7f596f75206861766520616c726561647920766f746564000000000000000000005f82015250565b5f611394601683611171565b915061139f82611360565b602082019050919050565b5f6020820190508181035f8301526113c181611388565b9050919050565b7f4e487b71000000000000000000000000000000000000000000000000000000005f52601160045260245ffd5b5f6113ff82610c17565b91507fffffffffffffffffffffffffffffffffffffffffffffffffffffffffffffffff8203611431576114306113c8565b5b600182019050919050565b7f4f6e6c792061646d696e2063616e2063616c6c20746869732066756e6374696f5f8201527f6e00000000000000000000000000000000000000000000000000000000000000602082015250565b5f611496602183611171565b91506114a18261143c565b604082019050919050565b5f6020820190508181035f8301526114c38161148a565b9050919050565b7f4f7074696f6e73206d7573742062652070726f766964656400000000000000005f82015250565b5f6114fe601883611171565b9150611509826114ca565b602082019050919050565b5f6020820190508181035f83015261152b816114f2565b9050919050565b7f4e487b71000000000000000000000000000000000000000000000000000000005f52603260045260245ffd5b5f819050815f5260205f209050919050565b5f6020601f8301049050919050565b5f82821b905092915050565b5f600883026115bb7fffffffffffffffffffffffffffffffffffffffffffffffffffffffffffffffff82611580565b6115c58683611580565b95508019841693508086168417925050509392505050565b5f819050919050565b5f6116006115fb6115f684610c17565b6115dd565b610c17565b9050919050565b5f819050919050565b611619836115e6565b61162d61162582611607565b84845461158c565b825550505050565b5f90565b611641611635565b61164c818484611610565b505050565b5b8181101561166f576116645f82611639565b600181019050611652565b5050565b601f8211156116b4576116858161155f565b61168e84611571565b8101602085101561169d578190505b6116b16116a985611571565b830182611651565b50505b505050565b5f82821c905092915050565b5f6116d45f19846008026116b9565b1980831691505092915050565b5f6116ec83836116c5565b9150826002028217905092915050565b61170582610fba565b67ffffffffffffffff81111561171e5761171d610c89565b5b61172882546112c8565b611733828285611673565b5f60209050601f831160018114611764575f8415611752578287015190505b61175c85826116e1565b8655506117c3565b601f1984166117728661155f565b5f5b8281101561179957848901518255600182019150602085019450602081019050611774565b868310156117b657848901516117b2601f8916826116c5565b8355505b6001600288020188555050505b505050505050565b7f43616e64696461746520646f6573206e6f7420657869737400000000000000005f82015250565b5f6117ff601883611171565b915061180a826117cb565b602082019050919050565b5f6020820190508181035f83015261182c816117f3565b905091905056fea2646970667358221220cbcc9fd20eff2923b70a421dc113159687926c10c4aac051719731706d46bbee64736f6c63430008140033",
  "immutableReferences": {},
  "source": "// SPDX-License-Identifier: MIT\npragma solidity ^0.8.0;\n\ncontract VotingContract {\n    address public admin;\n    string private message = \"Hello world!\" ;\n    mapping(address => bool) private voted;\n    mapping(uint256 => uint256) private voteCounts;\n    mapping(uint256 => string) public options;\n    mapping(uint256 => Candidate) private candidates;\n    mapping(uint256 => bool) private candidateExists;\n\n    event Vote(uint256 indexed option, address indexed voter);\n\n    struct Candidate {\n        uint256 id;\n        string name;\n        string party;\n        uint256 voteCount;\n    }\n\n    constructor() {\n       addCandidate(0, \"Candidate A\", \"Party X\");\n        addCandidate(1, \"Candidate B\", \"Party Y\");\n        addCandidate(2, \"Candidate C\", \"Party Z\");\n        admin = msg.sender;\n    }\n\n    modifier onlyAdmin() {\n        require(msg.sender == admin, \"Only admin can call this function\");\n        _;\n    }\n\n        function getMessage() public view returns(string memory){\n        return message;\n    }\n\n\n    function createVote(string[] memory _options) public onlyAdmin {\n        require(_options.length > 0, \"Options must be provided\");\n\n        for (uint256 i = 0; i < _options.length; i++) {\n            options[i] = _options[i];\n        }\n    }\n\n    function addCandidate(\n        uint256 _id,\n        string memory _name,\n        string memory _party\n    ) private {\n        require(!candidateExists[_id], \"Candidate with the same ID already exists\");\n\n        candidates[_id] = Candidate(_id, _name, _party, 0);\n        candidateExists[_id] = true;\n    }\n\n    function vote(uint256 _option) public {\n        require(bytes(options[_option]).length > 0, \"Invalid option\");\n        require(!voted[msg.sender], \"You have already voted\");\n\n        voted[msg.sender] = true;\n        voteCounts[_option]++;\n\n        emit Vote(_option, msg.sender);\n    }\n\n    function getCandidate(uint256 _id)\n        public\n        view\n        returns (\n            uint256,\n            string memory,\n            string memory,\n            uint256\n        )\n    {\n        require(candidateExists[_id], \"Candidate does not exist\");\n\n        Candidate memory candidate = candidates[_id];\n        return (candidate.id, candidate.name, candidate.party, candidate.voteCount);\n    }\n\n    function getVoteCount(uint256 _option) public view returns (uint256) {\n        require(bytes(options[_option]).length > 0, \"Invalid option\");\n\n        return voteCounts[_option];\n    }\n\n    function getVoting() public view returns (uint256[] memory, Candidate[] memory) {\n    uint256 optionCount = getOptionCount();\n    uint256[] memory allVoteCounts = new uint256[](optionCount);\n    Candidate[] memory allCandidates = new Candidate[](candidateCount());\n\n    for (uint256 i = 0; i < optionCount; i++) {\n        allVoteCounts[i] = voteCounts[i];\n    }\n\n    for (uint256 i = 0; i < candidateCount(); i++) {\n        allCandidates[i] = candidates[i];\n    }\n\n    return (allVoteCounts, allCandidates);\n}\n\nfunction candidateCount() public view returns (uint256) {\n    uint256 count = 0;\n    for (uint256 i = 0; i < 3; i++) { // Sesuaikan dengan jumlah kandidat yang telah ditambahkan\n        if (bytes(options[i]).length > 0) {\n            count++;\n        }\n    }\n    return count;\n}\n\nfunction getOptionCount() public view returns (uint256) {\n    uint256 count = 0;\n\n    for (uint256 i = 0; i < candidateCount(); i++) {\n        if (bytes(options[i]).length > 0) {\n            count++;\n        }\n    }\n\n    return count;\n}\n}\n",
  "sourcePath": "D:\\Aris\\Amicta\\smartcontract-amivote\\contracts\\Voting.sol",
  "compiler": {
    "name": "solc",
    "version": "0.8.20+commit.a1b79de6.Emscripten.clang"
  },
  "schemaVersion": "3.4.14",
  "updatedAt": "2023-06-20T14:49:41.287Z",
  "networkType": "ethereum",
  "devdoc": {
    "kind": "dev",
    "methods": {},
    "version": 1
  },
  "userdoc": {
    "kind": "user",
    "methods": {},
    "version": 1
  }
}