{
  "contractName": "Pemilih",
  "abi": [
    {
      "inputs": [],
      "stateMutability": "nonpayable",
      "type": "constructor"
    },
    {
      "inputs": [],
      "name": "administrator",
      "outputs": [
        {
          "internalType": "address",
          "name": "",
          "type": "address"
        }
      ],
      "stateMutability": "view",
      "type": "function",
      "constant": true
    },
    {
      "inputs": [
        {
          "internalType": "address",
          "name": "",
          "type": "address"
        }
      ],
      "name": "dataPemilihMap",
      "outputs": [
        {
          "internalType": "string",
          "name": "ktp",
          "type": "string"
        },
        {
          "internalType": "bool",
          "name": "sudahTerdaftar",
          "type": "bool"
        },
        {
          "internalType": "bool",
          "name": "sudahMemilih",
          "type": "bool"
        }
      ],
      "stateMutability": "view",
      "type": "function",
      "constant": true
    },
    {
      "inputs": [
        {
          "internalType": "address",
          "name": "_alamatPemilih",
          "type": "address"
        },
        {
          "internalType": "string",
          "name": "_ktp",
          "type": "string"
        }
      ],
      "name": "daftarPemilih",
      "outputs": [],
      "stateMutability": "nonpayable",
      "type": "function"
    }
  ],
  "bytecode": "0x608060405234801561000f575f80fd5b503360015f6101000a81548173ffffffffffffffffffffffffffffffffffffffff021916908373ffffffffffffffffffffffffffffffffffffffff160217905550610b428061005d5f395ff3fe608060405234801561000f575f80fd5b506004361061003f575f3560e01c806301a0916b14610043578063362fdf8314610075578063f53d0a8e14610091575b5f80fd5b61005d60048036038101906100589190610423565b6100af565b60405161006c939291906104f2565b60405180910390f35b61008f600480360381019061008a919061065a565b610173565b005b61009961038d565b6040516100a691906106c3565b60405180910390f35b5f602052805f5260405f205f91509050805f0180546100cd90610709565b80601f01602080910402602001604051908101604052809291908181526020018280546100f990610709565b80156101445780601f1061011b57610100808354040283529160200191610144565b820191905f5260205f20905b81548152906001019060200180831161012757829003601f168201915b505050505090806001015f9054906101000a900460ff16908060010160019054906101000a900460ff16905083565b60015f9054906101000a900473ffffffffffffffffffffffffffffffffffffffff1673ffffffffffffffffffffffffffffffffffffffff163373ffffffffffffffffffffffffffffffffffffffff1614610202576040517f08c379a00000000000000000000000000000000000000000000000000000000081526004016101f9906107a9565b60405180910390fd5b5f808373ffffffffffffffffffffffffffffffffffffffff1673ffffffffffffffffffffffffffffffffffffffff1681526020019081526020015f206001015f9054906101000a900460ff161561028e576040517f08c379a000000000000000000000000000000000000000000000000000000000815260040161028590610811565b60405180910390fd5b610297816103b2565b156102d7576040517f08c379a00000000000000000000000000000000000000000000000000000000081526004016102ce90610879565b60405180910390fd5b60405180606001604052808281526020016001151581526020015f15158152505f808473ffffffffffffffffffffffffffffffffffffffff1673ffffffffffffffffffffffffffffffffffffffff1681526020019081526020015f205f820151815f0190816103469190610a3d565b506020820151816001015f6101000a81548160ff02191690831515021790555060408201518160010160016101000a81548160ff0219169083151502179055509050505050565b60015f9054906101000a900473ffffffffffffffffffffffffffffffffffffffff1681565b5f919050565b5f604051905090565b5f80fd5b5f80fd5b5f73ffffffffffffffffffffffffffffffffffffffff82169050919050565b5f6103f2826103c9565b9050919050565b610402816103e8565b811461040c575f80fd5b50565b5f8135905061041d816103f9565b92915050565b5f60208284031215610438576104376103c1565b5b5f6104458482850161040f565b91505092915050565b5f81519050919050565b5f82825260208201905092915050565b5f5b8381101561048557808201518184015260208101905061046a565b5f8484015250505050565b5f601f19601f8301169050919050565b5f6104aa8261044e565b6104b48185610458565b93506104c4818560208601610468565b6104cd81610490565b840191505092915050565b5f8115159050919050565b6104ec816104d8565b82525050565b5f6060820190508181035f83015261050a81866104a0565b905061051960208301856104e3565b61052660408301846104e3565b949350505050565b5f80fd5b5f80fd5b7f4e487b71000000000000000000000000000000000000000000000000000000005f52604160045260245ffd5b61056c82610490565b810181811067ffffffffffffffff8211171561058b5761058a610536565b5b80604052505050565b5f61059d6103b8565b90506105a98282610563565b919050565b5f67ffffffffffffffff8211156105c8576105c7610536565b5b6105d182610490565b9050602081019050919050565b828183375f83830152505050565b5f6105fe6105f9846105ae565b610594565b90508281526020810184848401111561061a57610619610532565b5b6106258482856105de565b509392505050565b5f82601f8301126106415761064061052e565b5b81356106518482602086016105ec565b91505092915050565b5f80604083850312156106705761066f6103c1565b5b5f61067d8582860161040f565b925050602083013567ffffffffffffffff81111561069e5761069d6103c5565b5b6106aa8582860161062d565b9150509250929050565b6106bd816103e8565b82525050565b5f6020820190506106d65f8301846106b4565b92915050565b7f4e487b71000000000000000000000000000000000000000000000000000000005f52602260045260245ffd5b5f600282049050600182168061072057607f821691505b602082108103610733576107326106dc565b5b50919050565b7f48616e79612061646d696e6973747261746f722079616e67206461706174206d5f8201527f656e67616b736573000000000000000000000000000000000000000000000000602082015250565b5f610793602883610458565b915061079e82610739565b604082019050919050565b5f6020820190508181035f8301526107c081610787565b9050919050565b7f416c616d61742070656d696c69682073756461682074657264616674617200005f82015250565b5f6107fb601e83610458565b9150610806826107c7565b602082019050919050565b5f6020820190508181035f830152610828816107ef565b9050919050565b7f4b545020737564616820646967756e616b616e000000000000000000000000005f82015250565b5f610863601383610458565b915061086e8261082f565b602082019050919050565b5f6020820190508181035f83015261089081610857565b9050919050565b5f819050815f5260205f209050919050565b5f6020601f8301049050919050565b5f82821b905092915050565b5f600883026108f37fffffffffffffffffffffffffffffffffffffffffffffffffffffffffffffffff826108b8565b6108fd86836108b8565b95508019841693508086168417925050509392505050565b5f819050919050565b5f819050919050565b5f61094161093c61093784610915565b61091e565b610915565b9050919050565b5f819050919050565b61095a83610927565b61096e61096682610948565b8484546108c4565b825550505050565b5f90565b610982610976565b61098d818484610951565b505050565b5b818110156109b0576109a55f8261097a565b600181019050610993565b5050565b601f8211156109f5576109c681610897565b6109cf846108a9565b810160208510156109de578190505b6109f26109ea856108a9565b830182610992565b50505b505050565b5f82821c905092915050565b5f610a155f19846008026109fa565b1980831691505092915050565b5f610a2d8383610a06565b9150826002028217905092915050565b610a468261044e565b67ffffffffffffffff811115610a5f57610a5e610536565b5b610a698254610709565b610a748282856109b4565b5f60209050601f831160018114610aa5575f8415610a93578287015190505b610a9d8582610a22565b865550610b04565b601f198416610ab386610897565b5f5b82811015610ada57848901518255600182019150602085019450602081019050610ab5565b86831015610af75784890151610af3601f891682610a06565b8355505b6001600288020188555050505b50505050505056fea264697066735822122089e582847c82262e2ea153b7e8d01bd63a53bff954d0088608d85d52ca0a978164736f6c63430008140033",
  "immutableReferences": {},
  "source": "pragma solidity ^0.8.20;\n\ncontract Pemilih {\n    struct DataPemilih {\n        string ktp;\n        bool sudahTerdaftar;\n        bool sudahMemilih;\n    }\n\n    mapping(address => DataPemilih) public dataPemilihMap;\n    address public administrator;\n\n    constructor() {\n        administrator = msg.sender;\n    }\n\n    modifier hanyaAdministrator() {\n        require(msg.sender == administrator, \"Hanya administrator yang dapat mengakses\");\n        _;\n    }\n\n    function daftarPemilih(address _alamatPemilih, string memory _ktp) public hanyaAdministrator {\n        // Memastikan alamat pemilih belum terdaftar sebelumnya\n        require(!dataPemilihMap[_alamatPemilih].sudahTerdaftar, \"Alamat pemilih sudah terdaftar\");\n\n        // Memastikan KTP yang digunakan belum digunakan sebelumnya\n        require(!isKtpDigunakan(_ktp), \"KTP sudah digunakan\");\n\n        dataPemilihMap[_alamatPemilih] = DataPemilih(_ktp, true, false);\n    }\n\n    function isKtpDigunakan(string memory _ktp) internal view returns (bool) {\n        // Cek apakah KTP telah digunakan sebelumnya di blockchain atau database eksternal\n        // Implementasi validasi KTP di sini\n\n        return false;\n    }\n}\n\n",
  "sourcePath": "/home/ris/Documents/Blockchain/Decentralized-Voting-App/web3-contracts/contracts/Pemilih.sol",
  "compiler": {
    "name": "solc",
    "version": "0.8.20+commit.a1b79de6.Emscripten.clang"
  },
  "schemaVersion": "3.4.14",
  "updatedAt": "2023-06-17T09:50:43.864Z",
  "networkType": "ethereum",
  "devdoc": {
    "kind": "dev",
    "methods": {},
    "version": 1
  },
  "userdoc": {
    "kind": "user",
    "methods": {},
    "version": 1
  }
}