{
  "contractName": "TestVote",
  "abi": [
    {
      "inputs": [],
      "stateMutability": "nonpayable",
      "type": "constructor"
    },
    {
      "anonymous": false,
      "inputs": [
        {
          "indexed": true,
          "internalType": "uint256",
          "name": "id",
          "type": "uint256"
        },
        {
          "indexed": false,
          "internalType": "string",
          "name": "name",
          "type": "string"
        }
      ],
      "name": "CandidateAdded",
      "type": "event"
    },
    {
      "anonymous": false,
      "inputs": [
        {
          "indexed": true,
          "internalType": "address",
          "name": "voter",
          "type": "address"
        },
        {
          "indexed": true,
          "internalType": "uint256",
          "name": "candidateId",
          "type": "uint256"
        }
      ],
      "name": "VoteCast",
      "type": "event"
    },
    {
      "anonymous": false,
      "inputs": [
        {
          "indexed": false,
          "internalType": "uint256",
          "name": "startTime",
          "type": "uint256"
        },
        {
          "indexed": false,
          "internalType": "uint256",
          "name": "endTime",
          "type": "uint256"
        }
      ],
      "name": "VotingStarted",
      "type": "event"
    },
    {
      "inputs": [
        {
          "internalType": "uint256",
          "name": "",
          "type": "uint256"
        }
      ],
      "name": "candidates",
      "outputs": [
        {
          "internalType": "uint256",
          "name": "id",
          "type": "uint256"
        },
        {
          "internalType": "string",
          "name": "name",
          "type": "string"
        },
        {
          "internalType": "string",
          "name": "deskripsi",
          "type": "string"
        },
        {
          "internalType": "uint256",
          "name": "voteCount",
          "type": "uint256"
        }
      ],
      "stateMutability": "view",
      "type": "function",
      "constant": true
    },
    {
      "inputs": [],
      "name": "candidatesCount",
      "outputs": [
        {
          "internalType": "uint256",
          "name": "",
          "type": "uint256"
        }
      ],
      "stateMutability": "view",
      "type": "function",
      "constant": true
    },
    {
      "inputs": [],
      "name": "endTime",
      "outputs": [
        {
          "internalType": "uint256",
          "name": "",
          "type": "uint256"
        }
      ],
      "stateMutability": "view",
      "type": "function",
      "constant": true
    },
    {
      "inputs": [],
      "name": "owner",
      "outputs": [
        {
          "internalType": "address",
          "name": "",
          "type": "address"
        }
      ],
      "stateMutability": "view",
      "type": "function",
      "constant": true
    },
    {
      "inputs": [
        {
          "internalType": "address",
          "name": "",
          "type": "address"
        }
      ],
      "name": "votedOrNot",
      "outputs": [
        {
          "internalType": "bool",
          "name": "",
          "type": "bool"
        }
      ],
      "stateMutability": "view",
      "type": "function",
      "constant": true
    },
    {
      "inputs": [
        {
          "internalType": "string",
          "name": "name",
          "type": "string"
        },
        {
          "internalType": "string",
          "name": "deskripsi",
          "type": "string"
        }
      ],
      "name": "addCandidate",
      "outputs": [],
      "stateMutability": "nonpayable",
      "type": "function"
    },
    {
      "inputs": [],
      "name": "getBlockTime",
      "outputs": [
        {
          "internalType": "uint256",
          "name": "",
          "type": "uint256"
        }
      ],
      "stateMutability": "view",
      "type": "function",
      "constant": true
    },
    {
      "inputs": [
        {
          "internalType": "uint256",
          "name": "_candidateId",
          "type": "uint256"
        }
      ],
      "name": "vote",
      "outputs": [],
      "stateMutability": "nonpayable",
      "type": "function"
    },
    {
      "inputs": [],
      "name": "getRemainingTime",
      "outputs": [
        {
          "internalType": "uint256",
          "name": "",
          "type": "uint256"
        }
      ],
      "stateMutability": "view",
      "type": "function",
      "constant": true
    }
  ],
  "bytecode": "0x60806040523480156200001157600080fd5b5033600260006101000a81548173ffffffffffffffffffffffffffffffffffffffff021916908373ffffffffffffffffffffffffffffffffffffffff160217905550620000cf6040518060400160405280600b81526020017f43616e64696461746520310000000000000000000000000000000000000000008152506040518060400160405280601281526020017f6465736b7269707369206b616e646964617400000000000000000000000000008152506200015160201b60201c565b6200014b6040518060400160405280600b81526020017f43616e64696461746520320000000000000000000000000000000000000000008152506040518060400160405280601281526020017f6465736b7269707369206b616e646964617400000000000000000000000000008152506200015160201b60201c565b620005ba565b600260009054906101000a900473ffffffffffffffffffffffffffffffffffffffff1673ffffffffffffffffffffffffffffffffffffffff163373ffffffffffffffffffffffffffffffffffffffff1614620001e4576040517f08c379a0000000000000000000000000000000000000000000000000000000008152600401620001db9062000449565b60405180910390fd5b60016000815480929190620001f990620004fd565b91905055506040518060800160405280600154815260200183815260200182815260200160008152506003600060015481526020019081526020016000206000820151816000015560208201518160010190805190602001906200025f929190620002cc565b5060408201518160020190805190602001906200027e929190620002cc565b50606082015181600301559050506001547fe83b2a43e7e82d975c8a0a6d2f045153c869e111136a34d1889ab7b598e396a383604051620002c0919062000425565b60405180910390a25050565b828054620002da90620004c7565b90600052602060002090601f016020900481019282620002fe57600085556200034a565b82601f106200031957805160ff19168380011785556200034a565b828001600101855582156200034a579182015b82811115620003495782518255916020019190600101906200032c565b5b5090506200035991906200035d565b5090565b5b80821115620003785760008160009055506001016200035e565b5090565b600062000389826200046b565b62000395818562000476565b9350620003a781856020860162000491565b620003b281620005a9565b840191505092915050565b6000620003cc602b8362000476565b91507f4f6e6c7920636f6e7472616374206f776e65722063616e20706572666f726d2060008301527f7468697320616374696f6e0000000000000000000000000000000000000000006020830152604082019050919050565b600060208201905081810360008301526200044181846200037c565b905092915050565b600060208201905081810360008301526200046481620003bd565b9050919050565b600081519050919050565b600082825260208201905092915050565b6000819050919050565b60005b83811015620004b157808201518184015260208101905062000494565b83811115620004c1576000848401525b50505050565b60006002820490506001821680620004e057607f821691505b60208210811415620004f757620004f66200057a565b5b50919050565b60006200050a8262000487565b91507fffffffffffffffffffffffffffffffffffffffffffffffffffffffffffffffff82141562000540576200053f6200054b565b5b600182019050919050565b7f4e487b7100000000000000000000000000000000000000000000000000000000600052601160045260246000fd5b7f4e487b7100000000000000000000000000000000000000000000000000000000600052602260045260246000fd5b6000601f19601f8301169050919050565b610dae80620005ca6000396000f3fe608060405234801561001057600080fd5b50600436106100935760003560e01c80633477ee2e116100665780633477ee2e1461010c57806387ceff091461013f5780638da5cb5b1461015d578063ca020d141461017b578063efb98bcf146101ab57610093565b80630121b93f1461009857806326541b56146100b45780632d35a8a2146100d05780633197cbb6146100ee575b600080fd5b6100b260048036038101906100ad919061085b565b6101c9565b005b6100ce60048036038101906100c991906107ef565b610372565b005b6100d86104e2565b6040516100e59190610a88565b60405180910390f35b6100f66104e8565b6040516101039190610a88565b60405180910390f35b6101266004803603810190610121919061085b565b6104ee565b6040516101369493929190610aa3565b60405180910390f35b61014761062e565b6040516101549190610a88565b60405180910390f35b610165610636565b60405161017291906109d0565b60405180910390f35b610195600480360381019061019091906107c6565b61065c565b6040516101a291906109eb565b60405180910390f35b6101b361067c565b6040516101c09190610a88565b60405180910390f35b600460003373ffffffffffffffffffffffffffffffffffffffff1673ffffffffffffffffffffffffffffffffffffffff16815260200190815260200160002060009054906101000a900460ff1615610256576040517f08c379a000000000000000000000000000000000000000000000000000000000815260040161024d90610a68565b60405180910390fd5b60008111801561026857506001548111155b6102a7576040517f08c379a000000000000000000000000000000000000000000000000000000000815260040161029e90610a48565b60405180910390fd5b6003600082815260200190815260200160002060030160008154809291906102ce90610c63565b91905055506001600460003373ffffffffffffffffffffffffffffffffffffffff1673ffffffffffffffffffffffffffffffffffffffff16815260200190815260200160002060006101000a81548160ff021916908315150217905550803373ffffffffffffffffffffffffffffffffffffffff167fa36cc2bebb74db33e9f88110a07ef56e1b31b24b4c4f51b54b1664266e29f45b60405160405180910390a350565b600260009054906101000a900473ffffffffffffffffffffffffffffffffffffffff1673ffffffffffffffffffffffffffffffffffffffff163373ffffffffffffffffffffffffffffffffffffffff1614610402576040517f08c379a00000000000000000000000000000000000000000000000000000000081526004016103f990610a28565b60405180910390fd5b6001600081548092919061041590610c63565b9190505550604051806080016040528060015481526020018381526020018281526020016000815250600360006001548152602001908152602001600020600082015181600001556020820151816001019080519060200190610479929190610691565b506040820151816002019080519060200190610496929190610691565b50606082015181600301559050506001547fe83b2a43e7e82d975c8a0a6d2f045153c869e111136a34d1889ab7b598e396a3836040516104d69190610a06565b60405180910390a25050565b60015481565b60005481565b600360205280600052604060002060009150905080600001549080600101805461051790610c31565b80601f016020809104026020016040519081016040528092919081815260200182805461054390610c31565b80156105905780601f1061056557610100808354040283529160200191610590565b820191906000526020600020905b81548152906001019060200180831161057357829003601f168201915b5050505050908060020180546105a590610c31565b80601f01602080910402602001604051908101604052809291908181526020018280546105d190610c31565b801561061e5780601f106105f35761010080835404028352916020019161061e565b820191906000526020600020905b81548152906001019060200180831161060157829003601f168201915b5050505050908060030154905084565b600042905090565b600260009054906101000a900473ffffffffffffffffffffffffffffffffffffffff1681565b60046020528060005260406000206000915054906101000a900460ff1681565b60004260005461068c9190610b73565b905090565b82805461069d90610c31565b90600052602060002090601f0160209004810192826106bf5760008555610706565b82601f106106d857805160ff1916838001178555610706565b82800160010185558215610706579182015b828111156107055782518255916020019190600101906106ea565b5b5090506107139190610717565b5090565b5b80821115610730576000816000905550600101610718565b5090565b600061074761074284610b27565b610af6565b90508281526020810184848401111561075f57600080fd5b61076a848285610bef565b509392505050565b60008135905061078181610d4a565b92915050565b600082601f83011261079857600080fd5b81356107a8848260208601610734565b91505092915050565b6000813590506107c081610d61565b92915050565b6000602082840312156107d857600080fd5b60006107e684828501610772565b91505092915050565b6000806040838503121561080257600080fd5b600083013567ffffffffffffffff81111561081c57600080fd5b61082885828601610787565b925050602083013567ffffffffffffffff81111561084557600080fd5b61085185828601610787565b9150509250929050565b60006020828403121561086d57600080fd5b600061087b848285016107b1565b91505092915050565b61088d81610ba7565b82525050565b61089c81610bb9565b82525050565b60006108ad82610b57565b6108b78185610b62565b93506108c7818560208601610bfe565b6108d081610d39565b840191505092915050565b60006108e8602b83610b62565b91507f4f6e6c7920636f6e7472616374206f776e65722063616e20706572666f726d2060008301527f7468697320616374696f6e0000000000000000000000000000000000000000006020830152604082019050919050565b600061094e601483610b62565b91507f496e76616c69642063616e6469646174652049440000000000000000000000006000830152602082019050919050565b600061098e601683610b62565b91507f596f75206861766520616c726561647920766f746564000000000000000000006000830152602082019050919050565b6109ca81610be5565b82525050565b60006020820190506109e56000830184610884565b92915050565b6000602082019050610a006000830184610893565b92915050565b60006020820190508181036000830152610a2081846108a2565b905092915050565b60006020820190508181036000830152610a41816108db565b9050919050565b60006020820190508181036000830152610a6181610941565b9050919050565b60006020820190508181036000830152610a8181610981565b9050919050565b6000602082019050610a9d60008301846109c1565b92915050565b6000608082019050610ab860008301876109c1565b8181036020830152610aca81866108a2565b90508181036040830152610ade81856108a2565b9050610aed60608301846109c1565b95945050505050565b6000604051905081810181811067ffffffffffffffff82111715610b1d57610b1c610d0a565b5b8060405250919050565b600067ffffffffffffffff821115610b4257610b41610d0a565b5b601f19601f8301169050602081019050919050565b600081519050919050565b600082825260208201905092915050565b6000610b7e82610be5565b9150610b8983610be5565b925082821015610b9c57610b9b610cac565b5b828203905092915050565b6000610bb282610bc5565b9050919050565b60008115159050919050565b600073ffffffffffffffffffffffffffffffffffffffff82169050919050565b6000819050919050565b82818337600083830152505050565b60005b83811015610c1c578082015181840152602081019050610c01565b83811115610c2b576000848401525b50505050565b60006002820490506001821680610c4957607f821691505b60208210811415610c5d57610c5c610cdb565b5b50919050565b6000610c6e82610be5565b91507fffffffffffffffffffffffffffffffffffffffffffffffffffffffffffffffff821415610ca157610ca0610cac565b5b600182019050919050565b7f4e487b7100000000000000000000000000000000000000000000000000000000600052601160045260246000fd5b7f4e487b7100000000000000000000000000000000000000000000000000000000600052602260045260246000fd5b7f4e487b7100000000000000000000000000000000000000000000000000000000600052604160045260246000fd5b6000601f19601f8301169050919050565b610d5381610ba7565b8114610d5e57600080fd5b50565b610d6a81610be5565b8114610d7557600080fd5b5056fea26469706673582212208be2ef3750392952620c13aa4c9b705dcc75be64c0db8b90d624e1402a35354764736f6c63430008000033",
  "immutableReferences": {},
  "source": "//SPDX-License-Identifier: MIT\n\npragma solidity ^0.8.0;\n\ncontract TestVote {\n    struct Candidate {\n        uint256 id;\n        string name;\n        string deskripsi;\n        uint256 voteCount;\n    }\n\n    // uint256 public startTime;\n    uint256 public endTime;\n    uint256 public candidatesCount;\n    address public owner;\n\n    mapping(uint256 => Candidate) public candidates;\n    // mapping(address => bool) public registeredVoters;\n    mapping(address => bool) public votedOrNot;\n\n    event CandidateAdded(uint256 indexed id, string name);\n    event VoteCast(address indexed voter, uint256 indexed candidateId);\n    event VotingStarted(uint256 startTime, uint256 endTime);\n\n    constructor() {\n        owner = msg.sender;\n        addCandidate(\"Candidate 1\", \"deskripsi kandidat\");\n        addCandidate(\"Candidate 2\", \"deskripsi kandidat\");\n    }\n\n    // modifier onlyDuringVoting(){\n    //     require(block.timestamp <= endTime, \"Voting is not currenly active\");\n    //     _;\n    // }\n\n    modifier onlyOwner() {\n        require(msg.sender == owner, \"Only contract owner can perform this action\");\n        _;\n    }\n\n    modifier notOwner() {\n        require(msg.sender != owner, \"Owner cannot  vote\");\n        _;\n    }\n\n    function addCandidate(string memory name, string memory deskripsi) public onlyOwner {\n        candidatesCount++;\n        candidates[candidatesCount] = Candidate(candidatesCount, name, deskripsi, 0);\n        \n        emit CandidateAdded(candidatesCount, name);\n    }\n\n    // function registerVoter(address _voter) public onlyOwner {\n    //     registeredVoters[_voter] = true;\n    // }\n\n    // function startVoting (uint256 durationInSecond) public onlyOwner {\n    //     require(startTime == 0, \"Voting has already started\");\n    //     startTime = block.timestamp;\n    //     endTime = startTime + durationInSecond;\n\n    //     emit VotingStarted (startTime, 1688031349);\n        \n    // }\n\n    function getBlockTime() public view returns (uint256){\n        return block.timestamp;\n    }\n\n    function vote(uint256 _candidateId) public{\n        // require(registeredVoters[msg.sender], \"You are not registered to vote\");\n        require(!votedOrNot[msg.sender], \"You have already voted\");\n        require(_candidateId > 0 && _candidateId <= candidatesCount, \"Invalid candidate ID\");\n\n        candidates[_candidateId].voteCount++;\n\n        votedOrNot[msg.sender] = true;\n\n        emit VoteCast(msg.sender, _candidateId);\n    }\n\n    function getRemainingTime() public view returns (uint256) {\n            return endTime - block.timestamp;\n    }\n}",
  "sourcePath": "D:\\Aris\\Amicta\\Decentralized-Vote-App\\contracts\\TestVote.sol",
  "compiler": {
    "name": "solc",
    "version": "0.8.0+commit.c7dfd78e.Emscripten.clang"
  },
  "schemaVersion": "3.4.14",
  "updatedAt": "2023-06-23T13:52:20.318Z",
  "networkType": "ethereum",
  "devdoc": {
    "kind": "dev",
    "methods": {},
    "version": 1
  },
  "userdoc": {
    "kind": "user",
    "methods": {},
    "version": 1
  }
}