{
  "contractName": "Voting",
  "abi": [
    {
      "inputs": [],
      "stateMutability": "nonpayable",
      "type": "constructor"
    },
    {
      "anonymous": false,
      "inputs": [
        {
          "indexed": true,
          "internalType": "uint256",
          "name": "id",
          "type": "uint256"
        },
        {
          "indexed": false,
          "internalType": "string",
          "name": "name",
          "type": "string"
        }
      ],
      "name": "CandidateAdded",
      "type": "event"
    },
    {
      "anonymous": false,
      "inputs": [
        {
          "indexed": true,
          "internalType": "address",
          "name": "voter",
          "type": "address"
        },
        {
          "indexed": true,
          "internalType": "uint256",
          "name": "candidateId",
          "type": "uint256"
        }
      ],
      "name": "VoteCast",
      "type": "event"
    },
    {
      "inputs": [
        {
          "internalType": "uint256",
          "name": "",
          "type": "uint256"
        }
      ],
      "name": "candidates",
      "outputs": [
        {
          "internalType": "uint256",
          "name": "id",
          "type": "uint256"
        },
        {
          "internalType": "string",
          "name": "name",
          "type": "string"
        },
        {
          "internalType": "string",
          "name": "deskripsi",
          "type": "string"
        },
        {
          "internalType": "uint256",
          "name": "voteCount",
          "type": "uint256"
        }
      ],
      "stateMutability": "view",
      "type": "function",
      "constant": true
    },
    {
      "inputs": [],
      "name": "candidatesCount",
      "outputs": [
        {
          "internalType": "uint256",
          "name": "",
          "type": "uint256"
        }
      ],
      "stateMutability": "view",
      "type": "function",
      "constant": true
    },
    {
      "inputs": [],
      "name": "owner",
      "outputs": [
        {
          "internalType": "address",
          "name": "",
          "type": "address"
        }
      ],
      "stateMutability": "view",
      "type": "function",
      "constant": true
    },
    {
      "inputs": [
        {
          "internalType": "address",
          "name": "",
          "type": "address"
        }
      ],
      "name": "votedOrNot",
      "outputs": [
        {
          "internalType": "bool",
          "name": "",
          "type": "bool"
        }
      ],
      "stateMutability": "view",
      "type": "function",
      "constant": true
    },
    {
      "inputs": [
        {
          "internalType": "string",
          "name": "name",
          "type": "string"
        },
        {
          "internalType": "string",
          "name": "deskripsi",
          "type": "string"
        }
      ],
      "name": "addCandidate",
      "outputs": [],
      "stateMutability": "nonpayable",
      "type": "function"
    },
    {
      "inputs": [
        {
          "internalType": "uint256",
          "name": "_candidateId",
          "type": "uint256"
        }
      ],
      "name": "vote",
      "outputs": [],
      "stateMutability": "nonpayable",
      "type": "function"
    },
    {
      "inputs": [
        {
          "internalType": "uint256",
          "name": "_candidateId",
          "type": "uint256"
        }
      ],
      "name": "getCandidate",
      "outputs": [
        {
          "internalType": "uint256",
          "name": "",
          "type": "uint256"
        },
        {
          "internalType": "string",
          "name": "",
          "type": "string"
        },
        {
          "internalType": "string",
          "name": "",
          "type": "string"
        },
        {
          "internalType": "uint256",
          "name": "",
          "type": "uint256"
        }
      ],
      "stateMutability": "view",
      "type": "function",
      "constant": true
    },
    {
      "inputs": [
        {
          "internalType": "uint256",
          "name": "_candidateId",
          "type": "uint256"
        }
      ],
      "name": "getCandidateById",
      "outputs": [
        {
          "internalType": "string",
          "name": "",
          "type": "string"
        },
        {
          "internalType": "string",
          "name": "",
          "type": "string"
        },
        {
          "internalType": "uint256",
          "name": "",
          "type": "uint256"
        }
      ],
      "stateMutability": "view",
      "type": "function",
      "constant": true
    }
  ],
  "bytecode": "0x60806040523480156200001157600080fd5b5033600160006101000a81548173ffffffffffffffffffffffffffffffffffffffff021916908373ffffffffffffffffffffffffffffffffffffffff160217905550620000b36040518060400160405280600481526020017f416c6469000000000000000000000000000000000000000000000000000000008152506040518060600160405280602481526020016200172b602491396200011960201b60201c565b620001136040518060400160405280600581526020017f54616865720000000000000000000000000000000000000000000000000000008152506040518060600160405280602481526020016200172b602491396200011960201b60201c565b62000580565b600160009054906101000a900473ffffffffffffffffffffffffffffffffffffffff1673ffffffffffffffffffffffffffffffffffffffff163373ffffffffffffffffffffffffffffffffffffffff1614620001ac576040517f08c379a0000000000000000000000000000000000000000000000000000000008152600401620001a3906200040f565b60405180910390fd5b600080815480929190620001c090620004c3565b919050555060405180608001604052806000548152602001838152602001828152602001600081525060026000805481526020019081526020016000206000820151816000015560208201518160010190805190602001906200022592919062000292565b5060408201518160020190805190602001906200024492919062000292565b50606082015181600301559050506000547fe83b2a43e7e82d975c8a0a6d2f045153c869e111136a34d1889ab7b598e396a383604051620002869190620003eb565b60405180910390a25050565b828054620002a0906200048d565b90600052602060002090601f016020900481019282620002c4576000855562000310565b82601f10620002df57805160ff191683800117855562000310565b8280016001018555821562000310579182015b828111156200030f578251825591602001919060010190620002f2565b5b5090506200031f919062000323565b5090565b5b808211156200033e57600081600090555060010162000324565b5090565b60006200034f8262000431565b6200035b81856200043c565b93506200036d81856020860162000457565b62000378816200056f565b840191505092915050565b600062000392602b836200043c565b91507f4f6e6c7920636f6e7472616374206f776e65722063616e20706572666f726d2060008301527f7468697320616374696f6e0000000000000000000000000000000000000000006020830152604082019050919050565b6000602082019050818103600083015262000407818462000342565b905092915050565b600060208201905081810360008301526200042a8162000383565b9050919050565b600081519050919050565b600082825260208201905092915050565b6000819050919050565b60005b83811015620004775780820151818401526020810190506200045a565b8381111562000487576000848401525b50505050565b60006002820490506001821680620004a657607f821691505b60208210811415620004bd57620004bc62000540565b5b50919050565b6000620004d0826200044d565b91507fffffffffffffffffffffffffffffffffffffffffffffffffffffffffffffffff82141562000506576200050562000511565b5b600182019050919050565b7f4e487b7100000000000000000000000000000000000000000000000000000000600052601160045260246000fd5b7f4e487b7100000000000000000000000000000000000000000000000000000000600052602260045260246000fd5b6000601f19601f8301169050919050565b61119b80620005906000396000f3fe608060405234801561001057600080fd5b50600436106100885760003560e01c806335b8e8201161005b57806335b8e820146101165780638da5cb5b1461014957806395f8502214610167578063ca020d141461019957610088565b80630121b93f1461008d57806326541b56146100a95780632d35a8a2146100c55780633477ee2e146100e3575b600080fd5b6100a760048036038101906100a29190610bd7565b6101c9565b005b6100c360048036038101906100be9190610b6b565b610372565b005b6100cd6104e0565b6040516100da9190610ea9565b60405180910390f35b6100fd60048036038101906100f89190610bd7565b6104e6565b60405161010d9493929190610ec4565b60405180910390f35b610130600480360381019061012b9190610bd7565b610626565b6040516101409493929190610ec4565b60405180910390f35b6101516107fb565b60405161015e9190610d8c565b60405180910390f35b610181600480360381019061017c9190610bd7565b610821565b60405161019093929190610de4565b60405180910390f35b6101b360048036038101906101ae9190610b42565b6109ed565b6040516101c09190610da7565b60405180910390f35b600360003373ffffffffffffffffffffffffffffffffffffffff1673ffffffffffffffffffffffffffffffffffffffff16815260200190815260200160002060009054906101000a900460ff1615610256576040517f08c379a000000000000000000000000000000000000000000000000000000000815260040161024d90610e89565b60405180910390fd5b60008111801561026857506000548111155b6102a7576040517f08c379a000000000000000000000000000000000000000000000000000000000815260040161029e90610e69565b60405180910390fd5b6002600082815260200190815260200160002060030160008154809291906102ce90611050565b91905055506001600360003373ffffffffffffffffffffffffffffffffffffffff1673ffffffffffffffffffffffffffffffffffffffff16815260200190815260200160002060006101000a81548160ff021916908315150217905550803373ffffffffffffffffffffffffffffffffffffffff167fa36cc2bebb74db33e9f88110a07ef56e1b31b24b4c4f51b54b1664266e29f45b60405160405180910390a350565b600160009054906101000a900473ffffffffffffffffffffffffffffffffffffffff1673ffffffffffffffffffffffffffffffffffffffff163373ffffffffffffffffffffffffffffffffffffffff1614610402576040517f08c379a00000000000000000000000000000000000000000000000000000000081526004016103f990610e29565b60405180910390fd5b60008081548092919061041490611050565b91905055506040518060800160405280600054815260200183815260200182815260200160008152506002600080548152602001908152602001600020600082015181600001556020820151816001019080519060200190610477929190610a0d565b506040820151816002019080519060200190610494929190610a0d565b50606082015181600301559050506000547fe83b2a43e7e82d975c8a0a6d2f045153c869e111136a34d1889ab7b598e396a3836040516104d49190610dc2565b60405180910390a25050565b60005481565b600260205280600052604060002060009150905080600001549080600101805461050f9061101e565b80601f016020809104026020016040519081016040528092919081815260200182805461053b9061101e565b80156105885780601f1061055d57610100808354040283529160200191610588565b820191906000526020600020905b81548152906001019060200180831161056b57829003601f168201915b50505050509080600201805461059d9061101e565b80601f01602080910402602001604051908101604052809291908181526020018280546105c99061101e565b80156106165780601f106105eb57610100808354040283529160200191610616565b820191906000526020600020905b8154815290600101906020018083116105f957829003601f168201915b5050505050908060030154905084565b60006060806000808511801561063e57506000548511155b61067d576040517f08c379a000000000000000000000000000000000000000000000000000000000815260040161067490610e49565b60405180910390fd5b600060026000878152602001908152602001600020604051806080016040529081600082015481526020016001820180546106b79061101e565b80601f01602080910402602001604051908101604052809291908181526020018280546106e39061101e565b80156107305780601f1061070557610100808354040283529160200191610730565b820191906000526020600020905b81548152906001019060200180831161071357829003601f168201915b505050505081526020016002820180546107499061101e565b80601f01602080910402602001604051908101604052809291908181526020018280546107759061101e565b80156107c25780601f10610797576101008083540402835291602001916107c2565b820191906000526020600020905b8154815290600101906020018083116107a557829003601f168201915b50505050508152602001600382015481525050905080600001518160200151826040015183606001519450945094509450509193509193565b600160009054906101000a900473ffffffffffffffffffffffffffffffffffffffff1681565b6060806000808411801561083757506000548411155b610876576040517f08c379a000000000000000000000000000000000000000000000000000000000815260040161086d90610e69565b60405180910390fd5b600060026000868152602001908152602001600020604051806080016040529081600082015481526020016001820180546108b09061101e565b80601f01602080910402602001604051908101604052809291908181526020018280546108dc9061101e565b80156109295780601f106108fe57610100808354040283529160200191610929565b820191906000526020600020905b81548152906001019060200180831161090c57829003601f168201915b505050505081526020016002820180546109429061101e565b80601f016020809104026020016040519081016040528092919081815260200182805461096e9061101e565b80156109bb5780601f10610990576101008083540402835291602001916109bb565b820191906000526020600020905b81548152906001019060200180831161099e57829003601f168201915b505050505081526020016003820154815250509050806020015181604001518260600151935093509350509193909250565b60036020528060005260406000206000915054906101000a900460ff1681565b828054610a199061101e565b90600052602060002090601f016020900481019282610a3b5760008555610a82565b82601f10610a5457805160ff1916838001178555610a82565b82800160010185558215610a82579182015b82811115610a81578251825591602001919060010190610a66565b5b509050610a8f9190610a93565b5090565b5b80821115610aac576000816000905550600101610a94565b5090565b6000610ac3610abe84610f48565b610f17565b905082815260208101848484011115610adb57600080fd5b610ae6848285610fdc565b509392505050565b600081359050610afd81611137565b92915050565b600082601f830112610b1457600080fd5b8135610b24848260208601610ab0565b91505092915050565b600081359050610b3c8161114e565b92915050565b600060208284031215610b5457600080fd5b6000610b6284828501610aee565b91505092915050565b60008060408385031215610b7e57600080fd5b600083013567ffffffffffffffff811115610b9857600080fd5b610ba485828601610b03565b925050602083013567ffffffffffffffff811115610bc157600080fd5b610bcd85828601610b03565b9150509250929050565b600060208284031215610be957600080fd5b6000610bf784828501610b2d565b91505092915050565b610c0981610f94565b82525050565b610c1881610fa6565b82525050565b6000610c2982610f78565b610c338185610f83565b9350610c43818560208601610feb565b610c4c81611126565b840191505092915050565b6000610c64602b83610f83565b91507f4f6e6c7920636f6e7472616374206f776e65722063616e20706572666f726d2060008301527f7468697320616374696f6e0000000000000000000000000000000000000000006020830152604082019050919050565b6000610cca601483610f83565b91507f496e76616c69642043616e6469646174652049640000000000000000000000006000830152602082019050919050565b6000610d0a601483610f83565b91507f496e76616c69642063616e6469646174652049440000000000000000000000006000830152602082019050919050565b6000610d4a601683610f83565b91507f596f75206861766520616c726561647920766f746564000000000000000000006000830152602082019050919050565b610d8681610fd2565b82525050565b6000602082019050610da16000830184610c00565b92915050565b6000602082019050610dbc6000830184610c0f565b92915050565b60006020820190508181036000830152610ddc8184610c1e565b905092915050565b60006060820190508181036000830152610dfe8186610c1e565b90508181036020830152610e128185610c1e565b9050610e216040830184610d7d565b949350505050565b60006020820190508181036000830152610e4281610c57565b9050919050565b60006020820190508181036000830152610e6281610cbd565b9050919050565b60006020820190508181036000830152610e8281610cfd565b9050919050565b60006020820190508181036000830152610ea281610d3d565b9050919050565b6000602082019050610ebe6000830184610d7d565b92915050565b6000608082019050610ed96000830187610d7d565b8181036020830152610eeb8186610c1e565b90508181036040830152610eff8185610c1e565b9050610f0e6060830184610d7d565b95945050505050565b6000604051905081810181811067ffffffffffffffff82111715610f3e57610f3d6110f7565b5b8060405250919050565b600067ffffffffffffffff821115610f6357610f626110f7565b5b601f19601f8301169050602081019050919050565b600081519050919050565b600082825260208201905092915050565b6000610f9f82610fb2565b9050919050565b60008115159050919050565b600073ffffffffffffffffffffffffffffffffffffffff82169050919050565b6000819050919050565b82818337600083830152505050565b60005b83811015611009578082015181840152602081019050610fee565b83811115611018576000848401525b50505050565b6000600282049050600182168061103657607f821691505b6020821081141561104a576110496110c8565b5b50919050565b600061105b82610fd2565b91507fffffffffffffffffffffffffffffffffffffffffffffffffffffffffffffffff82141561108e5761108d611099565b5b600182019050919050565b7f4e487b7100000000000000000000000000000000000000000000000000000000600052601160045260246000fd5b7f4e487b7100000000000000000000000000000000000000000000000000000000600052602260045260246000fd5b7f4e487b7100000000000000000000000000000000000000000000000000000000600052604160045260246000fd5b6000601f19601f8301169050919050565b61114081610f94565b811461114b57600080fd5b50565b61115781610fd2565b811461116257600080fd5b5056fea2646970667358221220680bdc289f38cd13b9d796a1e74c752a19e1501be20f61560e2bc9fa058fecf264736f6c63430008000033536f6d65206465736372697074696f6e2061626f7574207468652063616e646964617465",
  "immutableReferences": {},
  "source": "//SPDX-License-Identifier: MIT\r\n\r\npragma solidity ^0.8.0;\r\n\r\ncontract Voting {\r\n    struct Candidate {\r\n        uint256 id;\r\n        string name;\r\n        string deskripsi;\r\n        uint256 voteCount;\r\n    }\r\n\r\n    // uint256 public startTime;\r\n    // uint256 public endTime;\r\n    uint256 public candidatesCount;\r\n    address public owner;\r\n\r\n    mapping(uint256 => Candidate) public candidates;\r\n    // mapping(address => bool) public registeredVoters;\r\n    mapping(address => bool) public votedOrNot;\r\n\r\n    event CandidateAdded(uint256 indexed id, string name);\r\n    event VoteCast(address indexed voter, uint256 indexed candidateId);\r\n    // event VotingStarted(uint256 startTime, uint256 endTime);\r\n\r\n    constructor() {\r\n        owner = msg.sender;\r\n        addCandidate(\"Aldi\", \"Some description about the candidate\");\r\n        addCandidate(\"Taher\", \"Some description about the candidate\");\r\n    }\r\n\r\n    // modifier onlyDuringVoting(){\r\n    //     require(block.timestamp >= startTime && block.timestamp <= endTime, \"Voting is not currenly active\");\r\n    //     _;\r\n    // }\r\n\r\n    modifier onlyOwner() {\r\n        require(msg.sender == owner, \"Only contract owner can perform this action\");\r\n        _;\r\n    }\r\n\r\n    modifier notOwner() {\r\n        require(msg.sender != owner, \"Owner cannot  vote\");\r\n        _;\r\n    }\r\n\r\n    function addCandidate(string memory name, string memory deskripsi) public onlyOwner {\r\n        candidatesCount++;\r\n        candidates[candidatesCount] = Candidate(candidatesCount, name, deskripsi, 0);\r\n        \r\n        emit CandidateAdded(candidatesCount, name);\r\n    }\r\n\r\n    // function registerVoter(address _voter) public onlyOwner {\r\n    //     registeredVoters[_voter] = true;\r\n    // }\r\n\r\n    // function startVoting (uint256 durationInSecond) public onlyOwner {\r\n        // require(startTime == 0, \"Voting has already started\");\r\n        // startTime = block.timestamp;\r\n        // endTime = startTime + durationInSecond;\r\n\r\n        // emit VotingStarted (startTime, 1688031349);\r\n\r\n    // }\r\n\r\n    function vote(uint256 _candidateId) public //onlyDuringVoting{\r\n        {\r\n        // require(registeredVoters[msg.sender], \"You are not registered to vote\");\r\n        require(!votedOrNot[msg.sender], \"You have already voted\");\r\n        require(_candidateId > 0 && _candidateId <= candidatesCount, \"Invalid candidate ID\");\r\n\r\n        candidates[_candidateId].voteCount++;\r\n\r\n        votedOrNot[msg.sender] = true;\r\n\r\n        emit VoteCast(msg.sender, _candidateId);\r\n    }\r\n\r\n    function getCandidate(uint256 _candidateId) public view returns(uint256, string memory, string memory, uint256) {\r\n        require(_candidateId > 0 && _candidateId <= candidatesCount, \"Invalid Candidate Id\");\r\n        Candidate memory candidate = candidates[_candidateId];\r\n        return(candidate.id, candidate.name, candidate.deskripsi, candidate.voteCount);\r\n    }\r\n\r\n    function getCandidateById(uint256 _candidateId) public view returns (string memory, string memory, uint256) {\r\n    require(_candidateId > 0 && _candidateId <= candidatesCount, \"Invalid candidate ID\");\r\n    Candidate memory candidate = candidates[_candidateId];\r\n    return (candidate.name, candidate.deskripsi, candidate.voteCount);\r\n    }\r\n\r\n    // function hashVoted(address _voter) public view returns (bool){\r\n    //     return votedOrNot[_voter];\r\n    // }\r\n\r\n    // function getRemainingTime() public view returns (uint256) {\r\n    //     if (block.timestamp <= endTime) {\r\n    //         return endTime - block.timestamp;\r\n    //     } else {\r\n    //         return 0;\r\n    //     }\r\n    // }\r\n}\r\n",
  "sourcePath": "D:\\Aris\\Amicta\\Decentralized-Vote-App\\contracts\\Voting.sol",
  "compiler": {
    "name": "solc",
    "version": "0.8.0+commit.c7dfd78e.Emscripten.clang"
  },
  "schemaVersion": "3.4.14",
  "updatedAt": "2023-06-23T15:57:16.853Z",
  "networkType": "ethereum",
  "devdoc": {
    "kind": "dev",
    "methods": {},
    "version": 1
  },
  "userdoc": {
    "kind": "user",
    "methods": {},
    "version": 1
  }
}